00000001JOAO DA SILVA                  0001C00000150075
00000002MARIA SANTOS                   0003P00001200050
00000003CARLOS PEREIRA                 0001C00000050000
00000004ANA OLIVEIRA                   0002C00005000000
00000005PEDRO COSTA                    0003C00000300025
00000006LUCIA MENDES                   0002P00002500000
00000007RAFAEL LIMA                    0001P00000750000
00000008FERNANDA SOUZA                 0004C00000100000
